:020000044000BA
:10000000971600009386065E171600001306065F1B
:10001000972100009381C1DC17C10000130181FE0C
:100020001712000013027261137202FC23A0060073
:1000300093864600E3CCC6FE970D0000938D8D0C91
:10004000370D00F02320BD01EF00D006EF10C024D3
:10005000370D00E02320AD00630000000000000029
:100060000000000000000000000000000000000090
:100070000000000000000000000000000000000080
:100080000000000000000000000000000000000070
:100090000000000000000000000000000000000060
:1000A0000000000000000000000000000000000050
:1000B0000000000000000000000000000000000040
:1000C0000000000000000000000000000000000030
:1000D0000000000000000000000000000000000020
:1000E000B16B00B50000000000000000000000003F
:1000F0000000000000000000000000000000000000
:10010000130000001301C1FB232011002322510022
:1001100023246100232671002328A100232AB10093
:10012000232CC100232ED1002320E1022322F1023F
:1001300023240103232611032328C103232AD103E7
:10014000232CE103232EF103370D00F0130D0D04D2
:10015000032D0D00130DCDFF2320A105B70500F0E1
:1001600003A5050103A605023375C500930501002B
:1001700063020506EF004077032501018325410155
:100180008320010083224100032381008323C100D7
:10019000032681018326C10103270102832741022F
:1001A000032881028328C102032E0103832E410309
:1001B000032F8103832FC10313014104936D1000AA
:1001C000370D00F0130D0D032320BD01032DC1FFDA
:1001D00067000D0013850800832541010326810176
:1001E0008326C101EF0040756FF09FF9B70500F05D
:1001F0009385050303A6050023A0A50013050600AB
:1002000067800000232085002322950023242501F8
:100210002326350123284501232A5501232C650176
:10022000232E7501232085032322950323264502CF
:1002300023282502232A1502136500006780000089
:100240000324050083244500032985008329C50074
:10025000032A0501832A4501032B8501832BC50150
:10026000032C0502832C45020322C502032105034A
:100270008320450313E5050067800000930805000F
:100280007300000067800000130101FC232E11029F
:10029000232C8102232A91022328210323263103C0
:1002A000232441032322510323206103232E7101C0
:1002B000232C8101232A91012326B100232401004C
:1002C00063860512137405FF130C0401130A0C0056
:1002D00093099000930BC0FF130B00011305A000BE
:1002E000EF0040149304C001B357944093F7F70014
:1002F0009384C4FF1385070363D4F9001385770340
:10030000EF004012E39274FF13050002EF0080112A
:1003100093040000930A7000B307940083CC070095
:100320001389140013D74C001305770363E4E90025
:1003300013050703EF00000F93F7FC001385770305
:1003400063E4F90013850703EF00C00D13050002F5
:10035000EF00400D638454096306690193040900AA
:100360006FF09FFB13050002EF00C00B1305C007E1
:10037000EF00400B9304E0056F00400113050700F8
:1003800013041400EF00000A63028A02034704000A
:100390001305E002930707FE93F7F70FE3F0F4FE6F
:1003A00013041400EF000008E3128AFE8327810083
:1003B0001305C007130A0A019387070193840700F6
:1003C0002324F100EF0000060327C10013040C00F2
:1003D00063FEE400130C0C016FF05FF013050002E4
:1003E000EF004004930409006FF01FF38320C10362
:1003F0000324810383244103032901038329C102C8
:10040000032A8102832A4102032B0102832BC101AB
:10041000032C8101832C4101130500001301010409
:1004200067800000370703E18327074093F7270021
:10043000E39C07FEB74703E123A0A7006780000005
:100440001307050063FCA50463CA05041305000235
:10045000930710006F00C0006300050463CC050023
:10046000939515001305F5FF93971700E3E6E5FE56
:1004700063820702130500006366B7003307B740C5
:100480003365F50093D7170093D51500E39607FE63
:1004900067800000130500006780000093071000CC
:1004A000130500006FF05FFD63F6A50463C4050447
:1004B00013070002930710006F00C00063080702D3
:1004C00063CC0500939515001307F7FF939717006A
:1004D000E3E6A5FE638E070093D717006364B500BB
:1004E0003305B54093D51500E39807FE67800000FB
:1004F00067800000930710006FF01FFE6F00902DC3
:10050000130101FF1305000023261100EFF01FCE99
:10051000B74702E11307200023A8E7403707008010
:1005200023A0E7408320C1003747000023A00740F5
:10053000130797D023A0E742130101016780000051
:10054000371702E1832707C093E747002320F7C04E
:1005500067800000130510006FF05FC9130101FFF1
:1005600023248100379404002322910023261100C4
:100570001304043EEF009038B7140040EF00905091
:100580009305050013060400138544341304140076
:10059000EF00407D6FF09FFE130101FF23248100D7
:1005A000371403002322910023261100130404D4DE
:1005B000EF00D034B7140040EF00D04C9305050095
:1005C000130604001385443413041400EF008079EB
:1005D0006FF09FFE130101FF232481003784010087
:1005E00023229100232611001304046AEF00103126
:1005F000B7140040EF0010499305050013060400EE
:100600001385443413041400EF00C0756FF09FFE8F
:10061000130101FF23248100370500403714000037
:10062000930504801305455D23261100EF009020FB
:10063000370500409305048013058559EF00901F8E
:1006400037050040930504801305C555EF00901E43
:10065000B74500009385F5F313052000EF00103B2C
:100660008320C10003248100130510001301010140
:100670006780000037150040130545356F00806E18
:10068000B70700E1130101FC83A7074023244103BE
:10069000371A004093074A38232A9102232821035E
:1006A00023263103232E1102232C810223225103FE
:1006B00023206103232E7101232C8101232A910120
:1006C0001309000293041000B70900E12326F1008A
:1006D00083A7094093941400638607041309F9FF64
:1006E0006302090483A7094013070002B3F79700C8
:1006F000636CF7000327C10093972700B387E700D7
:1007000083A707006780070083A50940B71700404B
:100710001385C735EF00006583A709409394140043
:10072000E39E07FA8320C10303248103832441034A
:10073000032901038329C102032A8102832A41027A
:10074000032B0102832BC101032C8101832C410166
:100750001301010467800000B71702E1370702E1C7
:100760000324074083A6078083A707C037170040EC
:100770003344D400130BC7593374F400930C0000B6
:10078000B71A02E1130C100093771400638E070070
:1007900083A50A8003260B00B3179C01B3C7B700DB
:1007A00023A0FA80E700060013541400938C1C0069
:1007B000130B4B00E31A04FC6FF09FF1B71701E134
:1007C000370701E10324074003A7078083A707C079
:1007D000B71600403344E400138AC6563374F4005D
:1007E000130C0000930B2000375B01E1930C3000E9
:1007F000B74A01E16F00C00383A70A4283A80A43F6
:1008000003A80A4403A50A43B3C71701B3F70701B6
:10081000B3C7A70023A8FA4283270A00E78007008E
:1008200013541400130C1C00130A4A00E30204EAD8
:1008300093771400E38607FE630C7C0563E68B0365
:10084000E31C0CFA83A70A0283A80A0303A80A047C
:1008500003A50A03B3C71701B3F70701B3C7A7007E
:1008600023A8FA026FF05FFBE3189CFB83270BC2FF
:1008700083280BC303280BC403250BC3B3C717017D
:10088000B3F70701B3C7A7002328FBC26FF0DFF857
:1008900083270B8283280B8303280B8403250B8378
:1008A000B3C71701B3F70701B3C7A7002328FB821B
:1008B0006FF09FF6B74703E11307201B23A8E7005B
:1008C00023A00700374600E183270600370700F022
:1008D0009306100093E707152320F6002320D70284
:1008E0002328D70267800000130101FF2322910013
:1008F000B7140040232481002326110013040500AF
:100900009384C4579377140013541400638807002A
:1009100083A7040063840700E780070093844400F2
:10092000E31204FE8320C1000324810083244100DC
:10093000130101016780000013870600930606007B
:10094000138605009305050037150040130101FFCC
:100950001305854023261100EF00C0408320C1000D
:100960001305F0FF1301010167800000130101FB73
:10097000232481042326110423229104232021050A
:10098000232E3103232C4103232A510323286103FF
:1009900023267103232481032322910383C70500A7
:1009A000130405006380070A371A004013070A453D
:1009B000B71900402326E1001387C943938B050034
:1009C000130906002324E1009304010113075002D8
:1009D0006398E70403C71B00930700036302F72A29
:1009E000930707FD93F7F70F13069000938B1B00F7
:1009F00093090002130CF0FF6374F62A130787FAB9
:100A00001377F70F9307000263E8E7028327C1001B
:100A1000131727003307F7008327070067800700B5
:100A20006308042A032704002300F7008327040037
:100A3000938717002320F40083C71B00938B1B00B0
:100A4000E39607F8630C0400832704002380070063
:100A500083270400938717002320F4008320C10418
:100A60000324810483244104032901048329C1034D
:100A7000032A8103832A4103032B0103832BC10231
:100A8000032C8102832C4102130500001301010590
:100A9000678000000327090093050001130949003E
:100AA000631E0708930700032308F100930A00035D
:100AB000130A1000330C4C41930CFCFF130AF0FF97
:100AC000635280036300041A8327040023803701E4
:100AD00083270400938717002320F400938CFCFFE6
:100AE000E3924CFF338BE400630804028327040085
:100AF0002380570183270400938717002320F400E5
:100B0000B3079B409306FBFFE358F0F2834AFBFFD9
:100B1000138B0600E31C04FCE3840AFE13850A0021
:100B2000EFF05F906FF0DFFD032709001309490024
:100B3000634C071A9305A000E30607F6138B050024
:100B4000930C0700130A000093050B0013850C009B
:100B5000EFF01F8F1307050093050B0013850C00A2
:100B600023229101930C0700EFF01F94832781004B
:100B700013070A00032641003385A700834A0500B6
:100B8000130A1A0033854401A30F55FFE37E66FB69
:100B90006FF05FF20325090013094900630404188C
:100BA00083270400938B1B002380A7008327040066
:100BB000938717002320F40083C70B00E39807E016
:100BC0006FF05FE8032709009305A00013094900AF
:100BD0006FF09FF6032B090013094900630C0B12F9
:100BE00003450B0063080502E3080CE463060408F0
:100BF000832704002380A70083270400938717001E
:100C00002320F40003451B00130CFCFF130B1B00F7
:100C1000E31C05FC130BFCFF930CF0FFE35E80E18B
:100C20006302040283270400238037018327040022
:100C3000938717002320F400130BFBFFE30E9BDFC9
:100C4000E31204FE13850900EFF0CFFD6FF0DFFE25
:100C500003270900938B1B00130949009305A0008B
:100C60006FF01FE4138509002322E100EFF08FFBF2
:100C7000032741006FF09FE6EFF0CFFA6FF09FF887
:100C800003C72B0013069000938B2B00930707FDDF
:100C900093F7F70F93090003130CF0FFE360F6D608
:100CA000130C000093172C00B3878701938B1B0054
:100CB00093971700B387E70003C70B00138C07FD5A
:100CC000930707FD93F7F70FE37EF6FC6FF01FD352
:100CD00013850700EFF00FF583C71B00938B1B00F4
:100CE000E39607CE6FF01FD6B30CE0406306040412
:100CF000832704001307D0022380E7008327040022
:100D0000938717002320F400130CFCFF130BA000A3
:100D10006FF05FE3B71700401305C003138B474321
:100D20006FF09FEC9377F50FE38807D01375F50FFD
:100D3000EFF04FEF6FF05FD01305D002EFF08FEEC2
:100D40006FF09FFC93F5F50F3307C500930705007F
:100D50006308060093871700A38FB7FEE39CE7FEA6
:100D600067800000130101FC130341022322B1023A
:100D70002324C10293050500130603001305000098
:100D8000232E11002326D1022328E102232AF10277
:100D9000232C0103232E110323266100EFF01FBD36
:100DA0008320C10113010104678000003713004054
:100DB0001303435E832603009308350093F8C8FFAE
:100DC00013860600130880FF9385880003A506009C
:100DD000630E050683A7460093F717006396070086
:100DE0006F000007032505008327450093F71700D0
:100DF000E39A07FE1306050093060500639E0700AD
:100E000003A70600630A070083274700930607002D
:100E100093F71700E38607FEB307C840B387F600D1
:100E20002322F6002320D600E3E2B7FAB305B6008A
:100E30002320C30093E818002320B60023221601C4
:100E400023A0D50023A205011305860067800000BA
:100E500013850600930605006FF05FFA938735004F
:100E600093F7C7FF938585FFB305B500938707FF09
:100E70002320B5002322F50023A00500B71700406A
:100E800023A0A75EB717004023A2050023A2A75EF8
:100E900067800000B717004083A7C75D13063000C6
:100EA0001305100083A64700938706006F00C0005B
:100EB00083A70700638AD70203C74706E31AC7FE62
:100EC00083D507061387F5FF13170701135707018B
:100ED000E38005FE2390E706E31C07FC2382A706B8
:100EE00083A70700E39AD7FC67800000130101FF86
:100EF00023248100371400401304C45D0327040039
:100F0000B73733332326110003270700938737337E
:100F10000325870583260500639AF6008320C10018
:100F20000324810013010101678000008355C70578
:100F3000EFF08FB583270400371500401305454DAA
:100F400083A7070083D6C70503A6870583D5E705D2
:100F5000EFF05FE16F000000B717004083A5C75DA9
:100F60001307200083A7050083C64706638EE604A7
:100F70009306100083A7070003C74706E31CD7FEAC
:100F800003D7270623A0F5001307F7FF1317070160
:100F9000135707012391E7061376F70FE31C06FCAE
:100FA000930620002382D70683A685001356870068
:100FB0003367C7002391E7061387160003D5E705BB
:100FC00023A4E50067800000130710002382E706D2
:100FD0006FF01FFAB717004083A7C75D130101FF29
:100FE0002326110003A5070013058500EFF08FA14C
:100FF000630805008320C100130101016780000020
:10100000EFF05FE9EFF09FEEEFF01FF5EFF08FD418
:10101000B717004083A7C75D9305100003A507001D
:1010200013058500EFF0CFA18320C100130101015A
:1010300067800000130101FE232C8100371400405B
:101040001304C45D232A9100832404002326310164
:10105000930905001305C00623282101232441011B
:1010600003A90400232E1100138A0500EFF01FD4FA
:101070000327040023A0A4008327470063860706F4
:101080008327070063880706630409002320F9000B
:101090008356C7000326470023A237012390070683
:1010A00023A0C700239E4705138616002316C700FA
:1010B000372700001307F7F1239FD7042391E70692
:1010C00023920706130500008320C1010324810138
:1010D00083244101032901018329C100032A8100DE
:1010E0001301010267800000832707002322F70015
:1010F0006FF05FF91305F0FF6FF01FFD130101FFA3
:1011000023261100232481002322910013040101CE
:10111000B71400409384C45D83A704009305900630
:1011200083A7070003D6C7059307F60093D74700A8
:10113000939747003301F14013050100EFF09FC082
:10114000130640009305300313050100EFF09FBF25
:1011500083A70400130640009305300383A707000C
:1011600003D5C7051305C5FF3305A100EFF09FBDEB
:1011700083A70400371500401306010083A707006A
:101180001305855083D6C70583D5E70523AC27040F
:10119000B306D100EFF01FBD83A7040003A507002D
:1011A00013058500EFF00F86631C0502B71700409A
:1011B00003A7C75D93071000832607002382F60666
:1011C0000326470083A70600638CC70283A6470057
:1011D0002320F700130720002382E706E78006009C
:1011E00013051000EFF08F80130104FF8320C1006E
:1011F0000324810083244100130101016780000062
:10120000930720002382F6066FF09FFDB71700407A
:1012100003A7C75DB72700009387F7F18326470030
:101220006380F50263F0B704B74700009387F7F3D4
:101230006388F500B78700009387F7F76390F5049C
:10124000938706006F00C00083A707006388D7025A
:1012500003D7E705E31AA7FE2391B706130500009D
:101260006780000093073030E38CF5FC37170000EF
:101270001307F7F093870600E38CE5FC1305F0FFF6
:1012800067800000B717004083A7C75D83A70700EA
:1012900003D5E70567800000130101FF23248100C7
:1012A0003714004023261100232291001304C45D4B
:1012B000EFF00FA583270400B71500403715004055
:1012C00023A0070023A2070023A4070023960700FA
:1012D000938585521305C553EFF0DFA8B7B400001E
:1012E00037150040938584A01305855FEFF01FB785
:1012F00037150040938584A013050555EFF09FA690
:10130000EFF00FB103270400832747002320F700E5
:101310006312050283A74700E78007008320C1000E
:1013200003248100832441001305000013010101FF
:1013300067800000EFF0CFA08327040083A7070099
:041340006FF05FFDEE
:101344005B7461736B20256420256C645D0A000066
:101354006972712100000000756E6B6E6F776E20EC
:1013640069727120736F7572636520666F722053A2
:1013740030434155534520253038780A0000000099
:10138400D0060040D0060040BC07004008070040DB
:1013940058070040080700400807004008070040BD
:1013A400D006004008070040080700400807004036
:1013B40008070040080700400807004008070040ED
:1013C400D006004008070040080700400807004016
:1013D40008070040080700400807004008070040CD
:1013E40008070040080700400807004008070040BD
:1013F40008070040080700400807004008070040AD
:10140400D006004073797363616C6C3A2025642CB8
:10141400205B617267303A2025642C206172673149
:101424003A2025642C20617267323A2025645D00DD
:101434003C4E554C4C3E0000303132333435363757
:10144400383961626364656600000000940A0040F4
:10145400380A0040380A0040380A0040380A004080
:10146400380A0040380A0040380A0040380A004070
:10147400380A0040380A0040940B0040280B004012
:10148400380A0040380A0040380A0040380A004050
:10149400380A0040380A0040380A0040500C004026
:1014A400380A0040380A0040380A0040380A004030
:1014B400380A0040380A0040D40B0040380A004083
:1014C400C40B0040380A0040380A0040940A004027
:1014D4000A2A2A2A2048414C54202D207461736B17
:1014E4002025642C206775617264202530387820AB
:1014F4002825642920636865636B206661696C65CF
:10150400640A00007461736B2025642C2067756184
:1015140072643A2025303878202D20253038780A16
:10152400000000005256333249202848462D5249C3
:1015340053435629000000005543582F4F5320624F
:101544006F6F74206F6E2025730A000068656170E8
:101554005F696E697428292C20256420627974657A
:101564007320667265650A007406004074060040C4
:101574007406004074060040800600407406004073
:10158400740600407406004074060040740600406F
:10159400740600407406004074060040740600405F
:1015A400FC040040740600407406004074060040C9
:1015B400740600407406004074060040740600403F
:1015C400740600407406004074060040740600402F
:0C15D4007406004074060040E81500405A
:0400000540000000B7
:00000001FF
